:100000000C943D030C945A030C945A030C945A0319
:100010000C945A030C945A030C945A030C945A03EC
:100020000C945A030C945A030C94FB180C94371834
:100030000C94BA120C945A030C945A030C945A035D
:100040000C945A030C945A030C945A030C945A03BC
:100050000C945A030C9448120C945A030C945A03AF
:100060000C945A030C945A030C945A030C945A039C
:100070000C945A030C945A030C945A030C945A038C
:100080000C945A030C945A030C945A030C945A037C
:100090000C945A030C945A030C945A030C945A036C
:1000A0000C945A030C945A030C945A03EC06EC0675
:1000B0002607260771078D075609B609CF07AD0831
:1000C000BE08BE087F0A820A850A880A8B0A8E0A41
:1000D000910A0A0E0F0E190E0D0E120E170E150EA6
:1000E00046166D160F186D160F18B516D8160F1880
:1000F000D317E6176C1D6C1D7F1D7F1D751D7F1DA1
:100100007F1D7F1D6C1D6C1D7A1D7F1D7F1D7A1D3F
:1001100029442B442961E100296A00001E001400D3
:1001200004001D0000074D001F001A0016001B00F0
:100130002C082C082000080007000600E2002C68AC
:10014000210015000945190091644A00220017009A
:100150000A0005000000656450002C080000E20160
:1001600000002C084F002A000000E3000000E2001D
:1001700023001C000B00110000002961240018005E
:100180000D00100090424B0025000C000E003600C0
:100190002C082841260012000F0037002C0890423E
:1001A000270013003343387130004E002A0031001D
:1001B0003467380001510000010001000100010016
:1001C000010000003A002F00380022020100010067
:1001D0003B00300025022302010001003C00260202
:1001E0002D003602010001003D0027020100370208
:1001F000010001003E0035002E0034000000010027
:1002000001000100000001000000010001000100E8
:1002100000000100000001003F004C002A0009041A
:10022000000001004000240021001E002700010002
:100230004100250022001F00370001004200260077
:10024000230020003700010043002700370037005B
:100250002E000100440045000100010001000000E3
:1002600001000100010001000100000001003B014C
:100270002F08010001004D00010050012B032B0A43
:100280000100010001002B082B043C0101000100CA
:1002900001004F012B012B0801004A000100410120
:1002A0003008010000000100010001000000010011
:1002B0000000010001000100000001000000010039
:1002C00001004A00500001000000010001004D0043
:1002D0005100010001004B0001004B005200AC0036
:1002E000AA00280001004E004F00AB00A80001004A
:1002F000010001000100010001004E0001000100A9
:1003000028000100010000000100010001000100BF
:1003100001000000010001002F08010001000100A0
:1003200001000100010001000100010001000100C5
:10033000F50001000100FD0001004A00F4004D003D
:100340000100010001006B0F30086D0F000001007B
:100350000100010000000100000001000100010097
:10036000000001000000010001006C0F6A0F6E0F19
:100370000000010001004B00F2004E0001000100EE
:100380000100F000F1000100010001000100F50092
:10039000F300010001000100010001000100010063
:1003A0000100010001000100010001000100000046
:1003B0000100010001000100010000003A000100FD
:1003C00001000100010001003B000100210B0100C0
:1003D000010001003C0001000100010001000100DA
:1003E0003D00010001000100010001003E0001008C
:1003F00001000100000001000100010000000100F7
:1004000000000100010001000000010000000100E7
:100410003F000100AD00AB000000010040003D00C6
:10042000AA00A8000100010041003E00A90001004F
:100430000100210B42000100010001000100010048
:100440004300AC000100010001000100005C01005C
:100450000100010001000000010001000100010095
:100460000100000001000100010001000100010085
:100470000100010001000100010001000100010074
:100480000100010001000100010001000100010064
:100490000100010001000100010001000000010055
:1004A0000100010000000100000001000100010046
:1004B0000000010000000100010001000100010036
:1004C00000000100430040003D003A00010001002F
:1004D000440041003E003B00010001004500420095
:1004E0003F003C000100010001000100010001008B
:1004F00001000100010001000100010001000000F5
:1005000005010902A10185020901A10005091901DE
:1005100029051500250195057501810295017503D1
:1005200081010501093009311581257F9502750882
:10053000810609381581257F950175088106050C0E
:100540000A38021581257F950175088106C0C0050E
:10055000010980A10185031A81002A830016010088
:10056000260300950175108100C0050C0901A10149
:1005700085041A01002A9C02160100269C0295019E
:1005800075108100C005010906A10185050507193F
:10059000E029E71500250195087501810205071975
:1005A0000029EF1500250195F07501810205081954
:1005B000012905950575019102950175039101C009
:1005C00005010906A101050719E029E71500250124
:1005D00095087501810295017508810105071900CB
:1005E00029FF150026FF00950675088100050819EA
:1005F000012905950575019102950175039101C0C9
:1006000009023B00020100A0FA09040000010301F5
:1006100001000921110100012240000705810308A2
:10062000000A090401000103000000092111010072
:100630000122C0000705820320000A1201100100F8
:10064000000008EDFE07130100010203010403305E
:1006500000000016034500720067006F0064006F21
:10066000007800200045005A00000008035A00539B
:100670000041000000040309040011241FBECFEF55
:10068000DAE0DEBFCDBF11E0A0E0B1E0EEE1F6E4DC
:1006900002C005900D92AC3EB107D9F723E0ACEE55
:1006A000B1E001C01D92A332B207E1F70E94C11A66
:1006B0000C940D230C9400004F925F926F927F92E6
:1006C0009F92AF92BF92CF92DF92EF92FF920F93E1
:1006D0001F93CF93DF9300D000D01F92CDB7DEB72A
:1006E000FC010081F18083819481892B39F01FEF17
:1006F000F11206C091E00F3F19F403C091E001C070
:1007000090E090FD66C66F0185E0DE0111960190D4
:100710000D928A95E1F7F601228189819A8122233F
:1007200049F00E941114182F682F89819A810E9424
:100730008B1403C00E945E14182F24E5129FF00151
:10074000112436E0F39EE00DF11D1124E00FF11DA0
:10075000EE0FFF1FE05FFE4F0591149109308DE50C
:10076000180709F040C0F60182818823E1F19091D9
:10077000DF0281E0890F8770987F853020F4892B14
:100780008093DF0202C09093DF028091DF028770C6
:10079000FFEF8F9FC00111249595879595958795BB
:1007A0009927909389008093880090938B00809381
:1007B0008A0090938D0080938C004091DF025091CD
:1007C000E0026091E1027091E2028FE090E00E940D
:1007D0009C21609198027091990280919A02909167
:1007E0009B020E94AB0DF6018281882319F1033E22
:1007F000FCE51F07C1F050F4013E3CE5130781F012
:10080000023E8CE51807B1F481E010C0043E9CE57F
:10081000190759F0053EECE51E0761F484E006C0B7
:100820001092DB0205C082E001C083E08093DB020E
:100830000E94F70B17FF71C0F6018281882309F42B
:100840006CC080919F028093EC0110929F02809176
:10085000DB02813071F048F08230C1F08430E1F485
:1008600086EE0E94202088E115C082EE0E9433208F
:1008700013C083E00E949A1F88E10E94332088E120
:100880000E94B91F83E00E948F1F06C082EE0E9463
:10089000332087E50E9420208FE39CE90197F1F740
:1008A00000C000005801E894B7F82CE0E22EF12CCB
:1008B000C5010E2C02C0969587950A94E2F7282F61
:1008C0002F7041F0822F90E02A3010F44D9604C032
:1008D000069702C087E290E00E94202094E0E91A87
:1008E000F108ECEFEE16EFEFFE0611F78091DB0258
:1008F000813039F040F0823031F0843051F488E2B8
:1009000006C08CE204C082EE0E94B91F02C00E94A1
:1009100020208091EC0180939F02033FFCE51F079C
:10092000C1F180F4083D3CE51307C9F0093D8CE5B1
:100930001807D9F1073D9CE51907D1F526E241EEEC
:1009400061EE10C0053FECE51E0759F130F1063F9E
:100950002CE5120769F527E245EE66EE03C027E2B3
:1009600045EE65EEC6010F900F900F900F900F901F
:10097000DF91CF911F910F91FF90EF90DF90CF907B
:10098000BF90AF909F907F906F905F904F900C942E
:100990001F0F26E241EE60EEE5CF27E245EE64EE62
:1009A000E1CF26E241EE62EEDDCF28E241E0D9CF91
:1009B000F6018281882309F44CC11092ED010230C6
:1009C000FCE51F0708F42FC106312CE5120738F0AB
:1009D00098012A5F3C452730310508F024C10E9468
:1009E00040139093F2028093F1020F303CE513071D
:1009F00009F4CFC008F042C008309CE5190709F49B
:100A0000A8C0F0F40430FCE51F0709F490C068F4B6
:100A100002303CE5130709F486C003301C4509F099
:100A2000DFC08091F1028260D9C006309CE51907D1
:100A300009F487C008F089C08091F1028860CEC0B7
:100A40000B30FCE51F0709F495C068F409303CE55C
:100A5000130709F482C00A301C4509F0C1C0809117
:100A6000F102886080C00D309CE5190709F486C04A
:100A700008F087C08091F1028D7FB0C00A3FFCE58D
:100A80001F0709F457C050F502313CE5130709F47C
:100A900088C068F400319CE5190709F47EC0013173
:100AA0001C4509F09DC08091F1028F7B97C00431F5
:100AB000FCE51F0709F487C008F479C005311C451F
:100AC00009F08EC08091F10282FB222720F991E08B
:100AD000922790FB82F990FB83F980C00D3F8CE553
:100AE000180709F452C058F40B3FECE51E0729F132
:100AF0000C3F1C4509F074C08091F20260C00F3FAA
:100B00002CE5120709F458C080F101151D4509F0C4
:100B100067C08091F202982F909591708E7F892BFB
:100B200090FB81F94DC08091F102816057C08091A6
:100B3000F10219C08091F2021BC08091F202826022
:100B40003FC08091F102806149C08091F1028062D2
:100B500045C08091F102806441C00E947A1F80915B
:100B6000F10280683BC0846039C08091F2028260EB
:100B7000816026C08091F1028E7F30C08091F102A9
:100B800019C08091F102877F29C08091F2028D7F88
:100B900017C08091F1028F7E21C08091F1028F7D7C
:100BA0001DC00E947A1F8091F1028F7717C080913B
:100BB000F102877F8B7F12C08091F2028D7F8E7F42
:100BC0008093F2020DC00E947A1F8091F10287FB90
:100BD000222720F991E0922790FB87F98093F10278
:100BE0006091F1021091F20284E090E00E948A216B
:100BF000612F81E290E00E948A210F900F900F9068
:100C00000F900F90DF91CF911F910F91FF90EF9078
:100C1000DF90CF90BF90AF909F907F906F905F904C
:100C20004F900C947A1F0631FCE51F07B1F58091B7
:100C30009F028A7A91E009F490E09093EE01882374
:100C400011F065E301C069E289E092E00E940B13B4
:100C50000EC006311C4509F07BC08091EE0188234F
:100C600009F4B5C365E389E092E00E94E3120F90B6
:100C70000F900F900F900F90DF91CF911F910F91D8
:100C8000FF90EF90DF90CF90BF90AF909F907F90BC
:100C90006F905F904F900C94CB1301159CE5190752
:100CA000D1F00E3D1C4509F053C00F900F900F90EE
:100CB0000F900F90DF91CF911F910F91FF90EF90C8
:100CC000DF90CF90BF90AF909F907F906F905F909C
:100CD0004F900C9451130E947A1FFFEF04E31CE025
:100CE000F15000401040E1F700C00000F89481E0AE
:100CF0008093E00080E28093D8001092C9008FE1D9
:100D00009EE40197F1F700C000001DBA1092680040
:100D10001CBC10BE1FBA10927A0010926E00109286
:100D20006F0010927100109272001092C900109220
:100D3000BC0014B817B81AB81DB810BA1092BC008D
:100D400015B818B81BB81EB811BA0C94003F41C3AF
:100D5000F60100811181882349F0C8010E94111415
:100D6000F82E682FC8010E948B1404C0C8010E948D
:100D70005E14F82EB8018F2D0E94FD0B8C01B82E49
:100D8000F601E580E2949FE0E922F280F1101092F2
:100D90009E0280919C02877079F0FF2069F080E2CA
:100DA000800F883048F082E00E94E81480919C0215
:100DB0008770AA24A3948111A12C912E92948FE084
:100DC0009822892D90E08C30910508F0CFC2FC016B
:100DD000EA5AFF4F0C94E621812F807F1F708823F1
:100DE00011F01295107FFF20B9F0112309F448C2C9
:100DF00080E2800F883010F0B11006C080919F0211
:100E0000182B10939F0205C080919E02182B1093FF
:100E10009E020E94CB1334C2802F0E94B91F11235F
:100E200009F4A4C2005E1095083010F0B11006C09D
:100E300080919F02182310939F0205C080919E020B
:100E4000182310939E020E94CB1390C2812F807FA3
:100E50001F70803211F01295107FBB2021F0F1E05D
:100E6000BF16E1F028C0FF2081F08091A002EE20A3
:100E700051F001E0E01207C0182B181709F476C2F0
:100E80001093A00273C2812B10C0EE2021F021E04C
:100E9000E21609F46BC20E94C5131FC0FF2041F087
:100EA00031E03E1508F462C2812F0E94AF1F5EC27E
:100EB000E1105CC212C0FF2019F0EE20A9F3E0C1DE
:100EC000EE2059F0093309F0EDC18FEF97EEE3E022
:100ED00081509040E040E1F7E3C1812F0E94A41FC0
:100EE00045C2812F86958695837019F0813059F01F
:100EF0003DC2FF2019F0C801937002C080E090E06D
:100F00000E94D50B39C2FF2019F0C801937002C0AE
:100F100080E090E00E94BF0B2FC2FF20F9F0053F58
:100F200051F0063F71F0043FA9F48091EF019091D8
:100F3000F00181600BC08091EF019091F00182601F
:100F400005C08091EF019091F00184609093F001D1
:100F50008093EF01802F0E94E0111EC0053F51F0E9
:100F6000063F71F0043FA9F48091EF019091F001E8
:100F70008E7F0BC08091EF019091F0018D7F05C0B5
:100F80008091EF019091F0018B7F9093F00180931D
:100F9000EF01802F0E9416110E94A412EDC1812F33
:100FA000837009F069C0F110E5C1902F9295969574
:100FB0009770990F990F802F8F70482E512C612CAC
:100FC000712C092E04C0440C551C661C771C0A9415
:100FD000D2F704FF12C04FE050E060E070E004C0C0
:100FE000440F551F661F771F9A95D2F7DB01CA0180
:100FF00080959095A095B09503C080E090E0DC01CD
:1010000016951695412F4370423019F1C8F400919E
:10101000A1021091A2022091A3023091A4024130BA
:1010200059F084299529A629B729BC01CD0160234F
:101030007123822393230AC0402A512A622A732AE9
:10104000BC01CD0164297529862997290E942215A2
:1010500091C184299529A629B7290091A10210914F
:10106000A2022091A3023091A402BC01CD0160270D
:10107000712782279327EACFFF2019F0812F8170F3
:1010800001C08695882309F475C1902F9295969595
:101090009770990F990F802F8F70482E512C612CCB
:1010A000712C092E04C0440C551C661C771C0A9434
:1010B000D2F704FF12C04FE050E060E070E004C0DF
:1010C000440F551F661F771F9A95D2F7DB01CA019F
:1010D00080959095A095B09503C080E090E0DC01EC
:1010E00016951695412F43704230D9F068F500915E
:1010F00098021091990220919A0230919B024130FE
:1011000059F084299529A629B729BC01CD0160236E
:101110007123822393231EC0402A512A622A732AF4
:1011200013C084299529A629B72900919802109106
:10113000990220919A0230919B02BC01CD01602757
:1011400071278227932706C0BC01CD016429752928
:10115000862997290E94B7140DC11F70FF2039F00E
:10116000812F0E940115802F0E94AF1F03C1802F85
:101170000E94A41F812F0E94C314FCC0802FF2EF95
:10118000BF1609F43EC0FB1538F020EFB21661F02F
:1011900031EFB31689F16FC093EFB916C9F1E4EFDF
:1011A000BE1609F44CC067C0FF2009F1E110DEC093
:1011B0001F7181E090E0A0E0B0E0AC01BD0104C08F
:1011C000440F551F661F771F1A95D2F7809198021A
:1011D00090919902A0919A02B0919B028A019B0181
:1011E000082719272A273B27C901B80125C021E074
:1011F0002E1508F4BBC0DCCFFF2029F0812F8F71A2
:101200002CC0FF20D9F3812F8F710E94C314AEC070
:10121000FF2079F01F7181E090E0A0E0B0E0BC0118
:10122000CD0104C0660F771F881F991F1A95D2F74A
:1012300003C060E070E0CB010E94B71497C0FF20AC
:1012400079F01F71812F0E94011538E0139FC001B2
:101250001124836080939C02812F0E94011586C017
:1012600081E00E94E81481E08E1508F07FC082E0E2
:101270000E94E8147BC0FF2039F0EE2009F4BECFB5
:10128000802F0E94332072C0EE2009F4BCCF893336
:1012900049F49FEFE7EEF3E09150E040F040E1F7D2
:1012A00000C00000802F0E94B91F60C012EFB1166D
:1012B000E1F01B1538F020EFB21669F031EFB316EC
:1012C00011F12BC084EFB816C9F0B81660F095EF95
:1012D000B91671F022C0FF2009F44EC090911E0390
:1012E00081E0892708C081E0F826F0921E0344C0FF
:1012F000F11042C081E080931E033EC0F1103CC05B
:1013000010921E0339C0FF2029F080911D0388230D
:1013100029F329C0EE2011F32FC080911D03EE2088
:10132000C1F0882341F090911E0381E089278093CA
:101330001E0310921D03802FFF2019F00E943320FE
:101340001BC00E94B91F86E0F60111928A95E9F749
:1013500013C0882389F0F1100FC090911E0381E023
:10136000892780931E0310921D0306C088EF890D04
:10137000843010F40E94EB0BAA2059F180919C025A
:1013800080FD27C0F60112828595859585950E947E
:101390000115C6010E945C0380919C02859585958C
:1013A00085950F900F900F900F900F90DF91CF9138
:1013B0001F910F91FF90EF90DF90CF90BF90AF9073
:1013C0009F907F906F905F904F900C94C31469E250
:1013D0004ACC0F900F900F900F900F90DF91CF910C
:1013E0001F910F91FF90EF90DF90CF90BF90AF9043
:1013F0009F907F906F905F904F9008959091F10231
:1014000092FF0DC0282F2871283019F4877F84603F
:1014100006C0282F2471243011F48B7F886093FF3D
:101420000DC0282F2871283119F4877E846106C0E9
:10143000282F2471243111F48B7E88612091F202CF
:1014400020FF0DC0382F3871383019F4877F816044
:1014500006C0382F3171313011F48E7F886021FF42
:101460000DC0282F2871283119F4877E816106C0AC
:10147000282F2171213111F48E7E886194FD877EA1
:101480000895CF93E82F873080F5809107019091E0
:101490000801892B09F047C0CE2F64E670E080E494
:1014A0000E94C6209093080180930701892BD1F4F4
:1014B00064E670E082E10E941D2190930801809310
:1014C0000701892B79F481E090E001C0880FCA956B
:1014D000EAF764E670E080950E941D219093080170
:1014E00080930701CF910C94722190E0FC01379713
:1014F000E730F105C0F4EE59FF4F0C94E621209A35
:10150000289811C0219A29980EC0229A2A980BC0B7
:10151000239A2B9808C0529A5A9805C0539A5B9800
:1015200002C03E9A4698CF910895CF93873008F035
:101530003FC08091070190910801892B09F041C0BB
:1015400064E670E080E40E94C620909308018093D6
:101550000701892B11F0C0E027C064E670E083E149
:101560000E941D219093080180930701892B99F710
:1015700064E670E081E40E94C620909308018093A5
:101580000701892B41F784E690E00E944D2197FFE7
:1015900005C09093080180930701DDCFC82FC09547
:1015A00010920801109207010E9472218C2F0AC02C
:1015B0009FB18FB1807F869586959370892B80959A
:1015C00001C080E0CF9108950F931F93CF93DF93D5
:1015D000CDB7DEB767970FB6F894DEBF0FBECDBFAD
:1015E0004B8B5C8B6D8B7E8B8F8B0E891F890115CE
:1015F000110531F05F3F31F481E04F3F19F403C032
:1016000081E001C080E080FD32C0242F30E0A1E005
:10161000B0E0042E01C0AA0F0A94EAF7852F90E0EB
:10162000662319F070911E0305C0FC01E550FE4FC2
:1016300070817A237723A1F046E0489FF001499F0B
:10164000F00D1124E20FF31FEE0FFF1FED5EFE4FB2
:1016500040815181FC01E550FE4F9081A92B06C0CD
:10166000FC01E550FE4FA0958081A823A08386E071
:10167000FE013D96DF01982F1D929A95E9F74D875F
:101680005E876F87198B088BDE01179601900D928C
:101690008A95E1F7CE0107960E94831D81113EC015
:1016A00086E0FE013796DE01119601900D928A9533
:1016B000E1F7FF81E8856A857B856115710531F069
:1016C000EF3F31F481E0FF3F19F403C081E001C036
:1016D00080E080FD23C020912F0230E0C9010196F7
:1016E000877099274091600250E08417950779F13F
:1016F000F983EA837D836C8396E0929FD001939F68
:10170000B00D1124A05DBD4FFE01319601900D92E8
:101710009A95E1F780932F020E942C1516E0809194
:10172000600290912F028917F9F0189FC0011124CF
:10173000805D9D4F0E94831D8823B1F080916002DF
:1017400090E001968770992780936002E8CF0E940D
:101750007A1F10922F0210926002E9E2F2E086E016
:10176000DF011D928A95E9F767960FB6F894DEBF00
:101770000FBECDBFDF91CF911F910F9108952091A2
:10178000F9013091FA012817390771F09093FA01A5
:101790008093F901E091F302F091F402309721F087
:1017A0000084F185E02D099408952091F70130918E
:1017B000F8012817390771F09093F8018093F70129
:1017C000E091F302F091F402309721F00680F78166
:1017D000E02D09940895E091F302F091F40230971E
:1017E00021F00190F081E02D099480E0089560914E
:1017F000DB028CE090E00C948A21CF93DF9324E508
:10180000829FC0011124FC0146E0749FE00DF11D90
:101810001124E60FF11DEE0FFF1FE05FFE4FC59193
:10182000D491CE01C238D10569F1B0F4C133D105EC
:1018300009F475C048F4C932D10509F469C0CA3247
:10184000D10509F473C085C0C533D10509F459C069
:10185000C933D105B9F07DC0C33ED10571F138F46B
:10186000C03ED105B1F0C23ED10511F172C0C63EF5
:10187000D105B9F1C73ED105C9F1C43ED10509F082
:1018800068C024C02091F10220FD5DC021FD5BC035
:1018900060C02091F10220FD50C02091F20220FF93
:1018A00057C18091F10284FD51C183EE90E050C197
:1018B0002091F10222FF4CC1F4CF8091F10282FD10
:1018C0003FC08091F20280FD3EC0EBCF2091F2023A
:1018D00021FF3EC18091F10284FD38C187EE90E086
:1018E00037C12091F10223FF33C1F4CF8091F1027F
:1018F00083FD2CC08091F20281FFECCF84EE90E05A
:1019000027C12091F10225FF23C189E290E020C187
:101910002091F10225FF1CC185E390E019C12091BF
:10192000F10226FF15C18AE290E012C12091F10276
:1019300026FF0EC181E390E00BC189E390E008C16E
:1019400082EE90E005C180EE90E002C186EE90E06C
:10195000FFC0C11552E5D50708F075C0C11521E5D6
:10196000D20728F09C2F8827816F906AF1C0C83E6B
:10197000D10570F5C03ED10508F0EAC0C83AD105DE
:10198000B8F4C53AD10550F08C2F855AC82FD0E055
:10199000C554DE4F888190E09064DAC0C130D10533
:1019A00009F4D6C008F4D2C0249708F4CFC0D0C040
:1019B000CF3BD10508F0CAC08C2F885AC82FD0E081
:1019C000CC0FDD1FC254DE4F888199819464C0C062
:1019D000C11540E2D40760F4C11551E0D50708F005
:1019E000B7C0C03FD10508F4B1C0CE019065B0C00A
:1019F000C11580E4D80708F4A9C0C11520E5D207B5
:101A000020F4CE019F70906AA3C0CE01F4E09695B9
:101A10008795FA95E1F7282F23703C2F337081E0EA
:101A200090E002C0880F991F3A95E2F79C68922BCC
:101A30002C2F2F702695269550E2259F900111247A
:101A4000822B932B85C0C11546E5D40708F03FC013
:101A5000C11555E5D50748F08C2F0E94FE098F71FE
:101A600090E0982F8827906273C0C11584E5D8074D
:101A700028F09C2F8827846F906A6AC09E0123708B
:101A800033279C2F96959695C115D34580F441E058
:101A900050E002C0440F551F2A95E2F780E2989F5C
:101AA00090011124CA01822B932B9C6851C041E004
:101AB00050E002C0440F551F2A95E2F780E2989F3C
:101AC00090011124CA01822B932B9A6841C0C11541
:101AD0005AE5D50778F5C11589E5D80710F18C2F9F
:101AE0008F700E94FE099E0194E0369527959A9585
:101AF000E1F72F7030E0322F22273069A901482BFF
:101B00000EC090568115904208F58D2F8F710E945E
:101B1000FE099E01332730628F71A901582BCA013B
:101B200017C0C11528E5D20788F09C2F8827806F41
:101B3000906A0EC0C1154BE5D40740F0CE01C11527
:101B40005CE5D507F0F69927906602C080E090E04A
:101B5000DF91CF910895CF92DF92EF92FF920F9392
:101B60001F936C01EE24FF24C114D104E104F1049D
:101B700011F0E0E103C06B017C01E0E033272F2D81
:101B80001E2D0D2D011511052105310519F0E85FF8
:101B90006801790197018601F4E03695279517953C
:101BA0000795FA95D1F7011511052105310519F0B1
:101BB000EC5F680179019701860152E0369527951F
:101BC000179507955A95D1F701151105210531058E
:101BD00019F0EE5F68017901970186013695279526
:101BE00017950795012B022B032B09F0EF5F5698F1
:101BF0005E9825982D9826982E9827982F980E2F26
:101C000010E0F8013197E730F105A8F4E759FF4FEC
:101C10000C94E621259A2D9A0EC0259A2D9A269A83
:101C20002E9A09C0259A2D9A04C0259A2D9A269A93
:101C30002E9A279A2F9A1F910F91FF90EF90DF9085
:101C4000CF90089580E290E090930801809307017F
:101C50008091F40181110EC00E94C02081E0809328
:101C6000F4012FEF83ED90E3215080409040E1F7A5
:101C700000C0000064E670E080E40E94C6209093FB
:101C8000080180930701892B09F04EC064E670E0DB
:101C900080E00E941D219093080180930701892B09
:101CA00009F042C064E670E080E00E941D2190933C
:101CB000080180930701892BB9F564E670E08FE392
:101CC0000E941D219093080180930701892B61F5E3
:101CD0000E94722164E670E080E40E94C620909326
:101CE000080180930701892BF9F464E670E08CE029
:101CF0000E941D219093080180930701892BA1F474
:101D000064E670E080E00E941D21909308018093BA
:101D10000701892B49F464E670E08FE30E941D21DE
:101D200090930801809307010E947221809107011E
:101D30000895CF93DF9356985E9825982D9826980E
:101D40002E9827982F98C8E8D0E08FEF90E09983DD
:101D50008883AAE8B0E011969C938E93ECE8F0E0BB
:101D600091838083259A2D9A2FEF80E792E021506E
:101D700080409040E1F700C00000269A2E9A2FEF95
:101D800080E792E0215080409040E1F700C00000E1
:101D9000279A2F9A2FEF80E792E0215080409040C1
:101DA000E1F700C0000025982D982FEF80E792E022
:101DB000215080409040E1F700C0000026982E9806
:101DC0002FEF80E792E0215080409040E1F700C083
:101DD000000027982F988091DF0287702FEF829F55
:101DE000C001112495958795959587959927998395
:101DF000888311969C938E939183808356985E98E6
:101E000025982D9826982E9827982F98DF91CF9176
:101E1000089584B1807F84B985B1807F85B98AB106
:101E2000837F8AB98BB1837F8BB93E98469808959A
:101E300080B38C7080BB81B3836F81BB08950F9397
:101E40001F93CF93DF93C62FD42F122FFC018281D3
:101E50008823C9F06093ED010E9498129093F601D7
:101E60008093F50180E28C0F883008F057C0C7706E
:101E700081E001C0880FCA95EAF7DF91CF911F91E9
:101E80000F910C94AF1F8091ED01681330C08091C9
:101E9000F5019091F6010E946E12883C910538F58B
:101EA00000E20D0FCD17B9F080E28C0F883040F4BE
:101EB000C77081E001C0880FCA95EAF70E94A41F8D
:101EC000083028F581E09D2F977001C0880F9A9502
:101ED000EAF70E94AF1F812F0E9420200830F0F403
:101EE000D77081E001C0880FDA95EAF70AC080E276
:101EF0008C0F883098F4C77081E001C0880FCA95B4
:101F0000EAF7DF91CF911F910F910C94A41F812FBD
:101F1000DF91CF911F910F910C942020DF91CF91F1
:101F20001F910F910895BF92CF92DF92EF92FF928F
:101F30000F931F93CF93DF93809107019091080136
:101F4000892B91F08091F3018F5F8093F3018111D0
:101F50000BC00E94220E90E090930801809307012D
:101F6000892B11F40E94990E93EEE92E92E0F92E3E
:101F70008701C0E0B12C87E0C82ECC0E8C2F0E94C8
:101F8000410A8C2D0E94410A8C2F0E94950AF8016B
:101F90009081891721F08083DD24D39401C0D12C56
:101FA0008C2D0E94950AF8019781891719F0878373
:101FB00081E001C080E0D82ABD280E94090FCF5FD0
:101FC0000F5F1F4FC730B9F60E9498126AEF70E09A
:101FD0000E94BE219C01682F8091F2018823E9F1C3
:101FE0001092F201E091D902F091DA02DF011E961F
:101FF00090E07BEF0AEF10E080818B3FA9F0482F43
:1020000050E0681728F06901C41AD50AA60106C075
:10201000E801C41BD50BAE01420F531F4E315105D1
:1020200014F0708301C091E03196EA17FB0721F7A5
:102030009093F201B11002C0911111C01092F10100
:10204000E091D902F091DA029091F201A6EFB2E0AC
:10205000AF01425F5F4F80E007C0B110EFCF8091CA
:10206000F1018111EBCF17C0E70129917E013C916D
:10207000321741F030813B3F21F460832C9391E093
:1020800001C081E031961196E417F50769F7909346
:10209000F2018093F1018B2DDF91CF911F910F9170
:1020A000FF90EF90DF90CF90BF9008958091AC02A9
:1020B0000895CF93DF9300D01F92CDB7DEB79091F4
:1020C000CF02943019F589837B836A8382E0809301
:1020D000E9008FEF9091E800815095FD06C095EDE5
:1020E0009A95F1F700008111F5CF8091E80085FF06
:1020F0000DC040E050E063E070E0CE0101960E9428
:1021000036158091E8008E778093E8000F900F904D
:102110000F90DF91CF910895CF93DF93EC010E9450
:10212000B91A823011F0843031F4BE0184E0DF91BD
:10213000CF910C945910DF91CF910895BC01605854
:10214000710983E00C945910CF93DF93EC010E9446
:10215000B91A823011F08430F9F482E08093E900FA
:102160008FEF9091E800815095FD06C095ED9A950E
:10217000F1F700008111F5CF8091E80085FF0CC0D8
:1021800040E050E066E070E0CE010E94361580919C
:10219000E8008E778093E800DF91CF910895CF9388
:1021A000DF93EC010E94B91A823011F08430D9F526
:1021B00080910601882339F08091F10287FF03C0E6
:1021C00060E282E002C068E081E08093E9008FEF86
:1021D0009091E800815095FD06C095ED9A95F1F734
:1021E00000008111F5CF8091E80085FF1CC080912F
:1021F0000601811105C040E050E068E070E003C0D6
:1022000070E040E050E0CE010E9436158091E80079
:102210008E778093E80080E2FE01ADEAB2E00190A3
:102220000D928A95E1F7DF91CF910895803F39F4BF
:102230008091070387FF6CC01092070369C0813F3C
:1022400029F4809107031816BCF362C0909106032D
:10225000823F29F497FF5CC01092060359C0833F68
:1022600019F41916CCF354C0893F41F48091080346
:1022700018160CF04DC0109208034AC08A3F29F48A
:102280008091080387FF44C0F6CF8B3F39F48091DB
:10229000090387FF3DC0109209033AC08C3F29F41F
:1022A000809109031816BCF333C0843F21F4809158
:1022B00005038E7F17C0853F21F4809105038D7F34
:1022C00011C0863F21F4809105038B7F0BC0873FAF
:1022D00021F480910503877F05C0883F31F4809108
:1022E00005038F7E8093050313C08D3F21F48091F9
:1022F000A9028E7F0BC08E3F21F48091A9028D7FB1
:1023000005C08F3F29F48091A9028B7F8093A90299
:102310008091060381110EC08091070381110AC0CC
:1023200080910803811106C080910903811102C0C8
:1023300010920A0308958091A90280FD16C081FDC4
:1023400016C082FD18C080910A03882391F088325C
:1023500090F428E0829FC001112468E270E00E949E
:10236000D221862F672B29F007C082E0089584E0F0
:10237000089581E0089588E008958091A90280FD84
:1023800017C081FD17C082FD19C080910A03882300
:1023900099F08C3398F423E2829FC00111246CE3FE
:1023A00070E00E94D221862F672B49F481E00895C6
:1023B00088E0089581E1089585E0089583E2089515
:1023C000803F21F40E94BD11819504C0813F29F412
:1023D0000E94BD11809307030895823F21F40E945B
:1023E000BD11819504C0833F29F40E94BD118093E3
:1023F00006030895893F19F40E949B1105C08A3F86
:1024000031F40E949B1181958093080308958B3FBE
:1024100021F40E949B11819504C08C3F29F40E94F5
:102420009B11809309030895843F21F48091050353
:10243000816017C0853F21F480910503826011C03F
:10244000863F21F48091050384600BC0873F21F40F
:1024500080910503886005C0883F31F480910503B1
:1024600080618093050308958D3F21F48091A90236
:1024700081600BC08E3F21F48091A902826005C06B
:102480008F3F29F48091A90284608093A902089566
:1024900078941F920F920FB60F9211248F939F93EF
:1024A000AF93BF938091A5029091A602A091A7023D
:1024B000B091A8020196A11DB11D8093A502909331
:1024C000A602A093A702B093A802BF91AF919F91DB
:1024D0008F910F900FBE0F901F901895CF92DF92A3
:1024E000EF92FF920F931F932FB7F8944091A5029C
:1024F0005091A6026091A7027091A8022FBF6A01B5
:102500007B01EE24FF248C0120E030E0C016D106D0
:10251000E206F30610F4415051099A01281B390BC9
:10252000C9011F910F91FF90EF90DF90CF90089518
:102530002FB7F8948091A5029091A602A091A702CE
:10254000B091A8022FBF0895E091F302F091F40238
:10255000309749F082E0809304030480F581E02DF8
:1025600084E093E009950E94981290930C03809365
:102570000B0308951F920F920FB60F9211248F93A1
:102580009F93AF93BF938091F502811113C0809107
:10259000A5029091A602A091A702B091A80241962F
:1025A000A11DB11D8093A5029093A602A093A7023E
:1025B000B093A802BF91AF919F918F910F900FBEE2
:1025C0000F901F901895209106012223C9F02091A9
:1025D000F10227FF15C0262F2695269526952E3128
:1025E000C8F4FC01E20FF11D677081E090E001C0CA
:1025F000880F6A95EAF780959281892382830895EE
:10260000FC0106962281621301C012823196E817FE
:10261000F907C1F70895209106012223C1F0209106
:10262000F10227FF14C0262F2695269526952E31D8
:1026300030F5FC01E20FF11D677081E090E001C010
:10264000880F6A95EAF79281892B82830895FC01AD
:1026500032962FEF30E04191641789F02F3F19F443
:10266000411101C0232F3F5F3630A9F72F3F39F0CA
:10267000FC01E20FF11D27FDFA956283089508958C
:10268000CF9384E090E00E947621C82F81E290E011
:102690000E9476212C2F30E0A901582BCA01CF913E
:1026A00008956FEE7EEF80E090E00E94A82160E048
:1026B00082E090E00E948A2160E083E090E00E9446
:1026C0008A211092A1021092A2021092A3021092EB
:1026D000A40260E084E090E00E948A2160E081E250
:1026E00090E00E948A2160E085E090E00E948A21CB
:1026F00060E086E090E00E948A216FEF87E090E042
:102700000E948A2140E050E0BA0188E090E00E94F7
:102710009C2160E08DE090E00E948A2140E050E042
:10272000BA0188E190E00E949C2160E087E190E09E
:102730000E948A2140E050E0BA018CE190E00E94C2
:102740009C2160E080E290E00E948A211092DF02EA
:102750001092E0021092E1021092E20284E08061A5
:102760008093DF024091DF025091E0026091E1022C
:102770007091E2028FE090E00E949C2140E050E0E6
:10278000BA0183E190E00C949C218091A002811118
:102790001092A002089590919F0280919E02892B31
:1027A00020919D02982F922B909309028091A00274
:1027B0008823D9F0892B8093090280910601882310
:1027C00031F08091F10287FF02C08EE101C086E006
:1027D000EBE0F2E090E0815028F021912223D9F340
:1027E0009F5FF9CF91110E94C513E091F302F09120
:1027F000F4023097A9F080910601882359F0809166
:10280000F10287FF07C08091090280930A0285E0E8
:10281000809309020280F381E02D89E092E009941F
:102820000895BF92CF92DF92EF92FF920F931F9382
:10283000CF93DF938C01C0909802D0909902E090E2
:102840009A02F0909B028091A1029091A202A09125
:10285000A302B091A402C82AD92AEA2AFB2ACFE10E
:10286000D0E0D701C6010C2E04C0B695A795979568
:1028700087950A94D2F780FD04C0219790F7B12C78
:1028800007C0BC2EB8018C2F0E94FD0B0197A9F345
:102890008B2DDF91CF911F910F91FF90EF90DF90E3
:1028A000CF90BF900895CF93DF93EC010E94111455
:1028B000BE010E94FD0BDF91CF910895292F220FB9
:1028C000920F990F890F682F669566956695982FD8
:1028D000977085E0689FB001112440E050E080E0EF
:1028E000FB01E40FF51FEF59FD4F208130E0092E69
:1028F00002C0369527950A94E2F721703327042EFB
:1029000001C0220F0A94EAF7822B4F5F5F4F4530D8
:10291000510531F70895292F220F920F990F890F32
:10292000E82FE695E695E695877051E001C0550FD2
:102930008A95EAF785E0E89FF0011124EF59FD4FF1
:1029400020E030E070E04081CB01022E02C096957D
:1029500087950A94E2F781708195842785238427DF
:1029600081932F5F3F4F2530310569F708950E940D
:10297000AB0D609398027093990280939A029093A2
:102980009B020C945F1F0F931F9341E050E060E0A7
:1029900070E004C0440F551F661F771F8A95D2F759
:1029A000409550956095709580919802909199020C
:1029B000A0919A02B0919B028A019B0108231923DE
:1029C0002A233B23C901B8011F910F910C94B7141E
:1029D00020919C028095822380939C02982F97706F
:1029E00079F430E0482F082E000C550B24173507DA
:1029F00039F08595859585950E94C31410929C02A7
:102A000008950F931F9341E050E060E070E004C030
:102A1000440F551F661F771F8A95D2F78091980241
:102A200090919902A0919A02B0919B028A019B0118
:102A3000082B192B2A2B3B2BC901B8011F910F9191
:102A40000C94B7146093A1027093A2028093A30226
:102A50009093A4020C945F1F8091600290912F02CA
:102A6000891719F08F5F8770FBCF0895EF92FF925F
:102A70000F931F93CF93DF937C018B010E94D41996
:102A8000811119C0E70101151105A1F08091E8003D
:102A900085FD0AC08091E8008E778093E8000E944F
:102AA000D419882381F307C089918093F1000150E4
:102AB0001109E9CF80E0DF91CF911F910F91FF9035
:102AC000EF9008951F93CF93DF93CDB7DEB7AA970A
:102AD0000FB6F894DEBF0FBECDBFE1EDF2E08091FE
:102AE000F100819322E0E93DF207C9F78091D2021B
:102AF000833009F460C030F4813071F0823009F421
:102B00009AC0B1C08A3009F486C08B3009F46BC01A
:102B1000893009F0A8C020C08091D102813A09F023
:102B2000A2C08091E800877F8093E8008091D50261
:102B30009091D602892B21F460E28DEA92E003C0E5
:102B400060E080E090E070E00E945B1A8091E80015
:102B50008B778093E80087C08091D102813209F0A1
:102B600082C08091D5029091D602029708F07BC076
:102B70008091E800877F8093E8008091E80082FDE3
:102B800005C08091CF028111F8CF6DC02091F30074
:102B90008091F20090E0922B029729F48091F1004D
:102BA0008B7F813021F48091F1008093AC02809181
:102BB000E8008B7754C08091D102813A09F053C06C
:102BC0008091D5029091D602892B09F04CC080915A
:102BD000E800877F8093E8008091E80080FFFCCFC9
:102BE0008091060137C08091D1028132E1F5809158
:102BF000D5029091D602892BB1F58091E800877FAC
:102C00008093E8000E94071A8091D3028093060106
:102C10000E947A1F28C08091D102813221F58091D3
:102C2000E800877F8093E8000E94071A8091D40211
:102C30008093AB0218C08091D102813AA1F48091B7
:102C4000E800877F8093E8008091E80080FFFCCF58
:102C50008091AB028093F1008091E8008E778093A1
:102C6000E8000E94071A8091E80083FFD8C1809194
:102C7000D1029091D202492F50E04A30510508F01C
:102C8000CEC1FA01E059FF4F0C94E621803821F0C3
:102C9000823809F0C4C108C08091CD029091CE0263
:102CA000992389F082600FC08091D5028F708730A0
:102CB00008F0B5C18093E9008091EB0085FB88277F
:102CC00080F91092E9009091E800977F9093E800D6
:102CD0008093F1001092F10071C1282F2D7F09F02F
:102CE0009EC1882319F0823061F099C18091D3028E
:102CF000813009F094C1933009F080E08093CE02D6
:102D00002EC08091D30281112AC08091D5028F708C
:102D10002FEF280F263008F082C18093E900209120
:102D2000EB0020FF1CC0933021F48091EB00806207
:102D300014C09091EB0090619093EB0021E030E0A3
:102D4000A90102C0440F551F8A95E2F74093EA009B
:102D50001092EA008091EB0088608093EB00109263
:102D6000E9008091E800877F2CC1811158C1109142
:102D7000D3021F778091E3008078812B8093E3005A
:102D80008091E800877F8093E8000E94071A809175
:102D9000E80080FFFCCF8091E30080688093E3002F
:102DA000111102C082E001C083E08093CF0237C1DD
:102DB0008058823008F033C18091D3029091D402C0
:102DC0008C3D53E0950779F583E08A838AE2898315
:102DD0004FB7F894DE01139620E03EE051E2E32F76
:102DE000F0E050935700E49120FF03C0E295EF70AC
:102DF0003F5FEF708E2F90E0EA3010F0C79601C071
:102E0000C0968D939D932F5F243149F74FBF8091DA
:102E1000E800877F8093E8006AE270E0CE010196C7
:102E20000E945B1ABAC04091D5025091D602292F58
:102E3000332723303105B1F068F42130310509F42E
:102E4000FDC02230310509F0EAC08BE390E0E0E0FC
:102E5000F6E050C02132310581F12232310509F40A
:102E600039C0DDC0992781309105B9F070F082300A
:102E70009105D9F0039709F0D2C0EDE4F6E0E491B2
:102E80008E2F90E0EDE4F6E032C0E5E7F6E0E49165
:102E90008E2F90E0E5E7F6E02AC0EBE6F6E0E4915D
:102EA0008E2F90E0EBE6F6E022C0E3E5F6E0E49159
:102EB0008E2F90E0E3E5F6E01AC04115510509F4C4
:102EC000C2C04130510509F0AAC089E090E0EBE2B0
:102ED000F6E010C04115510509F4BAC04130510562
:102EE00009F09DC080EC90E0E0E0F5E003C00097C1
:102EF00009F495C02091E800277F2093E8002091F5
:102F0000D7023091D8028217930708F49C0140E061
:102F10002115310589F18091CF02882309F43DC044
:102F20008530D9F18091E80083FD37C08091E800B9
:102F300082FD2FC08091E80080FFEACF4091F3002E
:102F40008091F20090E0942B2115310559F08830E2
:102F5000910540F444914093F1003196215031099C
:102F60000196F2CF41E0089709F040E08091E80037
:102F70008E778093E800CCCF4111CDCF0AC08091ED
:102F8000CF02882351F0853041F08091E80083FD25
:102F900004C08091E80082FFF2CF8091E8008B7737
:102FA0008093E8003CC08038D1F58091E800877FAD
:102FB0008093E8008091D0028093F1008091E80036
:102FC0008E778093E8000E94071A29C0811127C0DC
:102FD0008091D3029091D4029927029704F58091B1
:102FE000E800877F8093E8001091D3021093D0020D
:102FF0000E94071A111106C08091E30087FD02C0EC
:1030000081E001C084E08093CF0242E061EC81E086
:103010000E94261A42E261EC82E00E94261A809108
:10302000E80083FF1AC08091E800877F8093E80062
:103030008091EB0080628093EB000FC082E190E012
:10304000EBE3F6E057CF89E090E0E2E1F6E052CF23
:1030500080E490E0E0ECF5E04DCFAA960FB6F8944E
:10306000DEBF0FBECDBFDF91CF911F9108951F929C
:103070000F920FB60F9211242F933F934F935F93AC
:103080006F937F938F939F93AF93BF93CF93DF9370
:10309000EF93FF93C091E900CF708091EC00D82F9F
:1030A000D17080FDD0E81092E9008091F000877F18
:1030B0008093F00078940E9462151092E90080914C
:1030C000F00088608093F000CD2BCF70C093E900B2
:1030D000FF91EF91DF91CF91BF91AF919F918F9130
:1030E0007F916F915F914F913F912F910F900FBE04
:1030F0000F901F901895E8EDF0E080818E7F80831F
:103100001092E2001092DA001092E100A0EEB0E01E
:103110008C9181608C9380818F77808319BCA7ED1F
:10312000B0E08C918E7F8C9380818F7E8083109213
:10313000AA020895CF92DF92EF92FF920F931F930E
:10314000CF93DF93C8EDD0E088818F7E8883E7ED51
:10315000F0E080818160808384E082BF81E08093A1
:10316000AA0288818E7F888302EE10E0F801108227
:103170001092DA0081EEC82ED12CF60110828881DF
:103180008F77888388818068888388818F7D888312
:1031900019BC1092CF021092D0021092CE0210925F
:1031A000CD0290EEE92EF12CF70180818B7F808398
:1031B00088818160888342E060E080E00E94261A76
:1031C000F60180818E7F8083F80180818160808319
:1031D000808188608083F70180818E7F80838881F1
:1031E00080618883DF91CF911F910F91FF90EF90C5
:1031F000DF90CF9008951F920F920FB60F92112477
:103200002F933F934F935F936F937F938F939F93EE
:10321000AF93BF93EF93FF938091E10082FF09C0CA
:103220008091E20082FF05C08091E1008B7F809356
:10323000E1008091DA0080FF2AC08091D80080FFF1
:1032400026C08091DA008E7F8093DA008091D900C9
:1032500080FF18C080E189BD82E189BD09B400FE0C
:10326000FDCF81E08093CF028091AA0281110FC02F
:103270000E947B180E949A188091E20084608093DB
:10328000E20005C019BC1092CF021092AA028091F0
:10329000E10080FF17C08091E20080FF13C08091A1
:1032A000E2008E7F8093E2008091E2008061809353
:1032B000E2008091D80080628093D80019BC85E03C
:1032C0008093CF028091E10084FF32C08091E200C0
:1032D00084FF2EC080E189BD82E189BD09B400FE72
:1032E000FDCF8091D8008F7D8093D8008091E10040
:1032F0008F7E8093E1008091E2008F7E8093E200D8
:103300008091E20081608093E2008091D002882366
:1033100011F084E007C08091E30087FD02C081E0E6
:1033200001C083E08093CF020E947A1F0E94EB0BC2
:103330008091E10083FF27C08091E20083FF23C0DA
:103340008091E100877F8093E10082E08093CF024B
:103350001092D0028091E1008E7F8093E1008091F5
:10336000E2008E7F8093E2008091E2008061809392
:10337000E20042E060E080E00E94261A8091F000C6
:1033800088608093F000FF91EF91BF91AF919F9182
:103390008F917F916F915F914F913F912F910F90FE
:1033A0000FBE0F901F9018952091E4003091E5001A
:1033B00095E64091EC00842F817040FF23C08091FE
:1033C000E80080FD1DC08091CF02882399F08530F0
:1033D00099F08091EB0085FD11C04091E40050917F
:1033E000E5002417350729F3915011F09A01E1CF38
:1033F00084E0089582E0089583E0089581E00895CF
:1034000080E008954091E80042FFDDCF089580916B
:10341000D10287FF11C08091E80082FD05C0809134
:10342000CF028111F8CF11C08091E8008B770BC0DB
:103430008091CF02882349F08091E80080FFF8CF87
:103440008091E8008E778093E8000895982F973058
:1034500068F59093E900981739F07091EC0020918D
:10346000ED005091F00003C0242F762F50E021FD95
:1034700002C09F5FECCF3091EB003E7F3093EB00BA
:103480003091ED003D7F3093ED003091EB003160E5
:103490003093EB007093EC002093ED005093F0001C
:1034A0002091EE0027FDE5CF80E008958F70809396
:1034B000E90081E008952091D7023091D8022617C3
:1034C000370748F06115710539F42091E8002E772F
:1034D0002093E80001C0B901FC0120E061157105ED
:1034E00079F18091CF028823F1F18530F1F180915B
:1034F000E80083FD3CC08091E80082FD2EC08091F1
:10350000E80080FFEBCF2091F3008091F20090E083
:10351000922B6115710551F08830910538F4219195
:103520002093F100615071090196F3CF21E00897D3
:1035300009F020E08091E8008E778093E800CECFFC
:103540002111CFCF0AC08091CF02882361F085304E
:1035500061F08091E80083FD0AC08091E80082FF5D
:10356000F2CF80E0089582E0089583E0089581E03D
:1035700008958091CF02843011F081E0089582E0B7
:103580000895CF93DF93CDB7DEB72A970FB6F8949F
:10359000DEBF0FBECDBF84B7877F84BF0FB6F89460
:1035A000A89580916000886180936000109260000F
:1035B0000FBE90E080E80FB6F8948093610090937E
:1035C00061000FBE85B7806885BF85B7806885BFFD
:1035D0000E947B180E949A188091E2008460809378
:1035E000E20078948091CF028823A1F01091E90045
:1035F0001F709091EC00892F817090FD80E8182B4E
:103600001092E9008091E80083FD0E9462151F700E
:103610001093E90082E084BD93E095BD9AEF97BDD9
:1036200080936E000E94220E90E090930801809398
:1036300007010E94090F0E94180FA3EEB2E004E0F8
:1036400013E0E6EFF2E011921D9223E0E430F2077E
:10365000D1F78EE090E00E94EC218093D902909304
:10366000DA02FC010E962BEF21938E179F07E1F7EC
:1036700080E090E00E9484218F3E9E4F11F00E94D6
:1036800051138CE090E00E94762190E0A0E0B0E041
:103690008093DB029093DC02A093DD02B093DE0204
:1036A00089EA8093800089E08093810024982C9897
:1036B0003F988AB18F7C8AB96E98479A8BB18063A4
:1036C0008BB9769A8FE090E00E947E216093DF02B2
:1036D0007093E0028093E1029093E20267704FEFF3
:1036E000649FB00111247595679575956795772747
:1036F000709389006093880070938B0060938A00B8
:1037000070938D0060938C000E94990E80E090E091
:103710000E9484218F3E9E4F11F00E94511382E03F
:1037200090E00E94762180930E030E9440139093B4
:10373000F2028093F10283E090E00E947621682FEC
:1037400070E080E090E00E94221589E091E0909383
:10375000F4028093F302BB24B394AA24AA9480E1D8
:10376000982E92E1892E28E1C22ED12C30E4732EBE
:103770008091CF02853009F045C08091CF0284301E
:1037800009F11092F5020FB6F894A895C092600066
:103790000FBE7092600083B7817F846083BF83B760
:1037A000816083BF7894889583B78E7F83BF0FB67F
:1037B000F894A895809160008861809360001092D1
:1037C00060000FBE8091CE02882391F20E94220EEB
:1037D00090E090930801809307010E94090F0E94D6
:1037E000180FE6EFF2E011920E171F07E1F70E94A3
:1037F000930FE6EFF2E081918111DCC00E171F07F5
:10380000D1F7B6CF0E94930FAFE0B3E0E6EFF2E05E
:10381000E12CF12C3E2D21919D91922721F180E008
:1038200066246394492F4621D1F089833A83262167
:1038300081E009F480E08B830E9498128160782FE8
:103840009D838C8349815A816B818D810E94E40A1A
:10385000F701E15FFC4F8081682660821AC08F5FAC
:10386000660C8630F9F63FEFE31AF30A4EE0E416F1
:10387000F10481F6AE82AF8218860E9498128160B0
:10388000782F9A8789874E815F8168858A850E9413
:10389000E40A80910B0390910C030E946E129C012C
:1038A00090910A03992321F02431310508F476C060
:1038B00080910603F090070381110BC0F1108EC0B8
:1038C0002091080321118AC020910903211186C08B
:1038D00065C09F3F19F09F5F90930A03181624F468
:1038E0000E94BD11809306038091060387FF05C0E7
:1038F0000E94BD118195809306031F1424F40E9439
:10390000BD11809307038091070387FF05C00E94C4
:10391000BD11819580930703309106033323D1F0C5
:10392000209107032223B1F045EB3403C001112499
:10393000992319F09093060302C0B092060335EB69
:103940002303C0011124992319F09093070302C0A7
:10395000B092070380910803181624F40E949B116B
:10396000809308038091080387FF05C00E949B1184
:1039700081958093080380910903181624F40E940E
:103980009B11809309038091090387FF05C00E9462
:103990009B118195809309030E94A4120E94EB0B56
:1039A00090910D03891709F4E3CE0E94EB0B8093ED
:1039B0000D03DECE99BC89BC09B400FEFDCF809119
:1039C000D8008F7D8093D8008091E0008260809342
:1039D000E0008091E00081FDFCCFCACE9F3F09F05E
:1039E0007ACF8BCFCF9380912E0282958F7009F082
:1039F0005FC080912B02882309F45AC08091600235
:103A0000B0912F0270912902A0912A0240912C02BC
:103A100050912D0291E07F3F09F090E0692FC6E0C0
:103A20008B1709F445C04115510521F0AF3F21F036
:103A300020E003C021E001C0262F90E020FD35C02A
:103A4000C89FF001C99FF00D1124E05DFD4F218159
:103A50002A132BC02081271328C02281211125C0C1
:103A6000238134812417350710F421503109241B98
:103A7000350B283C3105C8F420912E022F702061AF
:103A800020932E0226E0289FF001299FF00D11249B
:103A9000EB5CFD4F80818F708061808389E292E0D2
:103AA0000E945C03CF910C942C1501968770B8CFBF
:103AB000CF9108950E945314292F2F70E92FE2957A
:103AC000EF704E2F50E0FA013297EE30F105B8F466
:103AD000E658FF4F0C94E621803F99F018F4883E99
:103AE00070F40FC0843F59F40CC0883E50F0813F01
:103AF00031F407C0822F869586958695089580E0DB
:103B0000089581E00895AF92BF92CF92DF92EF9235
:103B1000FF920F931F93CF93DF93CDB7DEB76197DB
:103B20000FB6F894DEBF0FBECDBF8C0185E0F80163
:103B3000DE011D9601900D928A95E1F7D8013C9126
:103B400011962C9111971296EC9050912902609148
:103B50002A0280912C0290912D02009731F06F3F44
:103B600031F441E05F3F19F403C041E001C040E09F
:103B7000B42FB170BB2E40FD43C1F801C380D48087
:103B8000A0902B02AA2009F4E2C040912E02C81690
:103B9000D90628F0D601A81BB90BCD0104C0809529
:103BA00090958C0D9D1DFF24F394883C910548F061
:103BB000F12C407F09F090C089E292E00E945C0302
:103BC00017C1842F807F09F052C0621312C05313B3
:103BD00010C0FE2CE1100DC04F70406140932E02CA
:103BE00089E292E00E945C0380912E02F8018583B5
:103BF00054C1CD2831F02F3F31F481E03F3F19F41B
:103C000003C081E001C080E080FD03C081E08E251B
:103C100002C080E090E0F82FF170FF2E80FF1CC002
:103C20008091600240912F0256E0841709F412C17E
:103C300090E0589FF001599FF00D1124E05DFD4F79
:103C40006181261306C06081361303C06281E612CB
:103C500003C001968770E9CFFE2CEE2009F41DC148
:103C600080912E02816080932E02F12C16C1621386
:103C700008C0531306C0E11004C080912E02F80161
:103C800099C03D872E878D859E850E945A1D882369
:103C900069F1EE2059F120912E02822F82958F70CA
:103CA00090E0029774F08091290290912A029887FF
:103CB0008F831986DB86CA862C87CE0107960E94E1
:103CC0005C0386E0F801A9E2B2E001900D928A95CA
:103CD000E1F70E94F21C0DC0621771F03D872E873C
:103CE0008D859E850E945A1D81111AC0C8010E94AF
:103CF0005C03FF24F394D1C05313F0CFE110EECF57
:103D000080912E02F8018583C8010E945C0386E041
:103D1000E9E2F2E0DF011D928A95E9F7FA2CBDC0D5
:103D2000EE2021F320912E02822F82958F7090E059
:103D300002973CF28091290290912A029A8389830A
:103D40001B82DD82CC822E83CE010196B8CFC816AD
:103D5000D90638F0C81AD90AB8ECCB16D10450F0FD
:103D600007C0809590958C0D9D1D883C910510F0A5
:103D7000F12C3EC0FE2CEE2009F4B8CF621327C010
:103D8000531325C020912E0220FD18C0822F82954A
:103D90008F70482F50E04115510581F0F8012583BF
:103DA0004F30510541F08F5F982F9295907F822F71
:103DB0008F70892B8583C8010E945C0386E0F8011F
:103DC000A9E2B2E001900D928A95E1F766C03D87C5
:103DD0002E878D859E850E945A1D811172CF8091FC
:103DE0002E02816080932E02C8010E945C0355C0A0
:103DF000E9E2F2E086E0DF011D928A95E9F74DC025
:103E0000EE2009F473CF3D872E878D859E850E9415
:103E10005A1DF82E882309F469CF86E0F801A9E23B
:103E2000B2E001900D928A95E1F78091290290917C
:103E30002A020E94531492959F70963041F480910B
:103E40001E0391E0892780931E0390931D030E9417
:103E5000F21C23C03D872E878D859E850E945314BA
:103E6000292F22952F70223028F49F7039F081116C
:103E700005C00BC0243028F49F7049F4805E883060
:103E800020F0C8010E945C03BF2CFB2C06C0D801A7
:103E900015969C91907F91F7F8CF8F2D61960FB674
:103EA000F894DEBF0FBECDBFDF91CF911F910F9170
:103EB000FF90EF90DF90CF90BF90AF900895109259
:103EC0009E0210929D020E94CB13E4E0F3E086E094
:103ED000DF011D928A95E9F710920A031092A90258
:103EE0000E94A41280E090E00E94D50B80E090E058
:103EF0000C94BF0B10929F0280910601882331F031
:103F00008091F10287FF02C08EE101C086E0EBE004
:103F1000F2E0DF011D928A95E9F70C945F1F882378
:103F200041F0809590919E02892380939E020C948B
:103F3000CB130895882339F090919E02892B8093AA
:103F40009E020C94CB130895882341F080959091A4
:103F50009F02892380939F020C94CB13089588239A
:103F600039F090919F02892B80939F020C94CB1380
:103F70000895882309F463C0823869F40E94EB0B2A
:103F800081FF5DC069E389E092E00E940B130E940B
:103F9000CB1369E30EC0833891F40E94EB0B80FFD2
:103FA0004EC063E589E092E00E940B130E94CB13A0
:103FB00063E589E092E00E94E3120C94CB1384380D
:103FC00069F40E94EB0B82FF3AC067E489E092E05B
:103FD0000E940B130E94CB1367E4EBCF9CEF980F6A
:103FE000913A10F4682FE5CF90E2980F983088F45A
:103FF000877021E030E0A90102C0440F551F8A9567
:10400000E2F7CA01809590919F02892380939F02D5
:10401000D4CF9BE5980F933020F480E090E00C948F
:10402000D50B98E5980F973120F480E090E00C9440
:10403000BF0B803F20F00E9416110C94A41208952B
:10404000CF93C82F0E943320C93349F42FEF87EE56
:1040500093E0215080409040E1F700C000008C2F99
:10406000CF910C94B91F882309F489C08238B1F428
:104070000E94EB0B81FD83C069E389E092E00E941E
:104080000B130E94CB132FEF41EE54E02150404020
:104090005040E1F700C0000069E317C08338D9F44D
:1040A0000E94EB0B80FD6BC063E589E092E00E940B
:1040B0000B130E94CB138FEF91EE24E081509040C0
:1040C0002040E1F700C0000063E589E092E00E9433
:1040D000E3120C94CB138438B1F40E94EB0B82FDF5
:1040E0004EC067E489E092E00E940B130E94CB135C
:1040F0004FEF51EE84E0415050408040E1F700C066
:10410000000067E4E2CF9CEF980F913A30F4682FFB
:1041100089E092E00E940B13DCCF90E2980F983078
:1041200080F4877021E030E0A90102C0440F551FE0
:104130008A95E2F7CA0190919F02892B80939F0292
:10414000C8CFEBE5E80FE33038F4F0E0E554FE4F7C
:10415000808190E00C94D50BE8E5E80FE73148F456
:10416000F0E0EE0FFF1FE254FE4F808191810C942E
:10417000BF0B803F20F00E94E0110C94A412089520
:104180001092B9008CE08093B8000895EF92FF92EE
:104190000F931F93CF93DF93182FEB011092BC0066
:1041A00084EA8093BC000E9498127C018091BC003C
:1041B00087FD0EC0CF3F8FEFD807C1F30E94981242
:1041C0008E199F098C179D0788F38EEF9FEF2EC0E5
:1041D0008091B900887F883041F08091B900887F54
:1041E000803119F08FEF9FEF21C01093BB0084E85E
:1041F0008093BC000E9498128C018091BC0087FDC6
:104200000CC0CF3F8FEFD807C1F30E949812801BDC
:10421000910B8C179D0788F3D8CF8091B900887FC8
:10422000883111F08034F1F680E090E0DF91CF9199
:104230001F910F91FF90EF9008950F931F93CF93CD
:10424000DF93EB018093BB0084E88093BC000E9465
:1042500098128C018091BC0087FD0EC0CF3F8FEF7C
:10426000D807C1F30E949812801B910B8C179D07F1
:1042700088F38EEF9FEF0CC02091B900287F81E07A
:1042800090E0283211F480E090E0919581959109B9
:10429000DF91CF911F910F9108950F931F93CF93AB
:1042A000DF93EC0184E88093BC000E9498128C019B
:1042B0008091BC0087FD0EC0CF3F8FEFD807C1F3C0
:1042C0000E949812801B910B8C179D0788F38EEF2C
:1042D0009FEF03C08091BB0090E0DF91CF911F91D1
:1042E0000F91089584E98093BC000895F999FECF59
:1042F00092BD81BDF89A992780B50895A6E1B0E0F6
:1043000044E050E00C94B021A8E1B0E042E050E07D
:104310000C94B021262FF999FECF92BD81BDF89A59
:10432000019700B4021639F01FBA20BD0FB6F894F9
:10433000FA9AF99A0FBE08950396272F0E948B21AF
:104340000E948A21252F0E948B21242F0C948B21DF
:104350000196272F0E948B210C948A21DC01CB012E
:10436000FC01F999FECF06C0F2BDE1BDF89A319685
:1043700000B40D9241505040B8F70895AA1BBB1BE2
:1043800051E107C0AA1FBB1FA617B70710F0A61B55
:10439000B70B881F991F5A95A9F780959095BC0176
:1043A000CD01089597FB072E16F4009407D077FDF2
:1043B00009D00E94BE2107FC05D03EF4909581955E
:1043C0009F4F0895709561957F4F0895EE0FFF1FE1
:1043D0000590F491E02D09940F931F93CF93DF93F1
:1043E0008230910510F482E090E0E0912103F09199
:1043F000220320E030E0A0E0B0E0309719F14081E6
:1044000051810281138148175907C8F08417950715
:1044100069F4109731F012960C93129713961C932F
:1044200027C0009321031093220322C021153105D8
:1044300019F04217530718F49A01BD01EF01DF018B
:10444000F801DBCF21153105F9F0281B390B243099
:10445000310580F48A819B816115710521F0FB0192
:104460009383828304C09093220380932103FE01EF
:10447000329644C0FE01E20FF31F819391932250C4
:104480003109398328833AC020911F0330912003DA
:10449000232B41F42091020130910301309320033A
:1044A00020931F0320910001309101012115310556
:1044B00041F42DB73EB74091040150910501241BF2
:1044C000350BE0911F03F0912003E217F307A0F4EE
:1044D0002E1B3F0B2817390778F0AC014E5F5F4F5A
:1044E0002417350748F04E0F5F1F50932003409369
:1044F0001F038193919302C0E0E0F0E0CF01DF91D0
:10450000CF911F910F910895CF93DF93009709F4F6
:1045100081C0FC01329713821282A0912103B091D5
:104520002203109781F420813181820F931F209103
:104530001F03309120032817390751F5F09320030A
:10454000E0931F0367C0ED0120E030E0CE17DF07E6
:1045500040F44A815B819E0141155105F1F0EA0169
:10456000F5CFD383C28340815181840F951FC81733
:10457000D90759F488819981840F951F02969183F8
:1045800080838A819B81938382832115310529F45D
:10459000F0932203E09321033DC0E901FB83EA830A
:1045A00049915991C40FD51FEC17FD0761F4808123
:1045B0009181840F951F0296E901998388838281F6
:1045C00093819B838A83E0E0F0E012968D919C9129
:1045D0001397009719F0FD01DC01F7CF8D919C91A5
:1045E00011979D012E5F3F4F820F931F20911F0354
:1045F000309120032817390769F4309729F4109275
:1046000022031092210302C013821282B09320036E
:0E461000A0931F03DF91CF910895F894FFCF80
:10461E000000230320000120005610CF10A4109E8E
:10462E00108C10000D010D020D030D040D050D0073
:10463E000C010C020C030C040C050C000B010B02FC
:10464E000B030B040B050B000A010A020A030A04F2
:10465E000A050A00090109020903090409050900EE
:10466E0008010802080308040805080007010702EC
:10467E0007030704070507000601060206030604E2
:10468E0006050600050105020503050405050500DE
:10469E0004010402040304040405040003010302DC
:1046AE0003030304030503000201020202030204D2
:1046BE0002050200010101020103010401050100CE
:1046CE000001000200030004000500818283E20065
:1046DE00E900EA00B500B600B700CD008301CC00BA
:1046EE008A0192019401210223022402250226024C
:0C46FE0027022A02B300B4006F00700015
:00000001FF
